{
  "_format": "hh-sol-artifact-1",
  "contractName": "NFT",
  "sourceName": "contracts/NFT.sol",
  "abi": [
    {
      "inputs": [
        {
          "internalType": "string",
          "name": "_name",
          "type": "string"
        },
        {
          "internalType": "string",
          "name": "_symbol",
          "type": "string"
        },
        {
          "internalType": "uint256",
          "name": "_cost",
          "type": "uint256"
        }
      ],
      "stateMutability": "nonpayable",
      "type": "constructor"
    },
    {
      "anonymous": false,
      "inputs": [
        {
          "indexed": true,
          "internalType": "address",
          "name": "owner",
          "type": "address"
        },
        {
          "indexed": true,
          "internalType": "address",
          "name": "approved",
          "type": "address"
        },
        {
          "indexed": true,
          "internalType": "uint256",
          "name": "tokenId",
          "type": "uint256"
        }
      ],
      "name": "Approval",
      "type": "event"
    },
    {
      "anonymous": false,
      "inputs": [
        {
          "indexed": true,
          "internalType": "address",
          "name": "owner",
          "type": "address"
        },
        {
          "indexed": true,
          "internalType": "address",
          "name": "operator",
          "type": "address"
        },
        {
          "indexed": false,
          "internalType": "bool",
          "name": "approved",
          "type": "bool"
        }
      ],
      "name": "ApprovalForAll",
      "type": "event"
    },
    {
      "anonymous": false,
      "inputs": [
        {
          "indexed": true,
          "internalType": "address",
          "name": "from",
          "type": "address"
        },
        {
          "indexed": true,
          "internalType": "address",
          "name": "to",
          "type": "address"
        },
        {
          "indexed": true,
          "internalType": "uint256",
          "name": "tokenId",
          "type": "uint256"
        }
      ],
      "name": "Transfer",
      "type": "event"
    },
    {
      "inputs": [
        {
          "internalType": "address",
          "name": "to",
          "type": "address"
        },
        {
          "internalType": "uint256",
          "name": "tokenId",
          "type": "uint256"
        }
      ],
      "name": "approve",
      "outputs": [],
      "stateMutability": "nonpayable",
      "type": "function"
    },
    {
      "inputs": [
        {
          "internalType": "address",
          "name": "owner",
          "type": "address"
        }
      ],
      "name": "balanceOf",
      "outputs": [
        {
          "internalType": "uint256",
          "name": "",
          "type": "uint256"
        }
      ],
      "stateMutability": "view",
      "type": "function"
    },
    {
      "inputs": [],
      "name": "cost",
      "outputs": [
        {
          "internalType": "uint256",
          "name": "",
          "type": "uint256"
        }
      ],
      "stateMutability": "view",
      "type": "function"
    },
    {
      "inputs": [
        {
          "internalType": "uint256",
          "name": "tokenId",
          "type": "uint256"
        }
      ],
      "name": "getApproved",
      "outputs": [
        {
          "internalType": "address",
          "name": "",
          "type": "address"
        }
      ],
      "stateMutability": "view",
      "type": "function"
    },
    {
      "inputs": [
        {
          "internalType": "address",
          "name": "owner",
          "type": "address"
        },
        {
          "internalType": "address",
          "name": "operator",
          "type": "address"
        }
      ],
      "name": "isApprovedForAll",
      "outputs": [
        {
          "internalType": "bool",
          "name": "",
          "type": "bool"
        }
      ],
      "stateMutability": "view",
      "type": "function"
    },
    {
      "inputs": [
        {
          "internalType": "string",
          "name": "tokenURI",
          "type": "string"
        }
      ],
      "name": "mint",
      "outputs": [],
      "stateMutability": "payable",
      "type": "function"
    },
    {
      "inputs": [],
      "name": "name",
      "outputs": [
        {
          "internalType": "string",
          "name": "",
          "type": "string"
        }
      ],
      "stateMutability": "view",
      "type": "function"
    },
    {
      "inputs": [],
      "name": "owner",
      "outputs": [
        {
          "internalType": "address",
          "name": "",
          "type": "address"
        }
      ],
      "stateMutability": "view",
      "type": "function"
    },
    {
      "inputs": [
        {
          "internalType": "uint256",
          "name": "tokenId",
          "type": "uint256"
        }
      ],
      "name": "ownerOf",
      "outputs": [
        {
          "internalType": "address",
          "name": "",
          "type": "address"
        }
      ],
      "stateMutability": "view",
      "type": "function"
    },
    {
      "inputs": [
        {
          "internalType": "address",
          "name": "from",
          "type": "address"
        },
        {
          "internalType": "address",
          "name": "to",
          "type": "address"
        },
        {
          "internalType": "uint256",
          "name": "tokenId",
          "type": "uint256"
        }
      ],
      "name": "safeTransferFrom",
      "outputs": [],
      "stateMutability": "nonpayable",
      "type": "function"
    },
    {
      "inputs": [
        {
          "internalType": "address",
          "name": "from",
          "type": "address"
        },
        {
          "internalType": "address",
          "name": "to",
          "type": "address"
        },
        {
          "internalType": "uint256",
          "name": "tokenId",
          "type": "uint256"
        },
        {
          "internalType": "bytes",
          "name": "data",
          "type": "bytes"
        }
      ],
      "name": "safeTransferFrom",
      "outputs": [],
      "stateMutability": "nonpayable",
      "type": "function"
    },
    {
      "inputs": [
        {
          "internalType": "address",
          "name": "operator",
          "type": "address"
        },
        {
          "internalType": "bool",
          "name": "approved",
          "type": "bool"
        }
      ],
      "name": "setApprovalForAll",
      "outputs": [],
      "stateMutability": "nonpayable",
      "type": "function"
    },
    {
      "inputs": [
        {
          "internalType": "uint256",
          "name": "_newCost",
          "type": "uint256"
        }
      ],
      "name": "setCost",
      "outputs": [],
      "stateMutability": "nonpayable",
      "type": "function"
    },
    {
      "inputs": [
        {
          "internalType": "bytes4",
          "name": "interfaceId",
          "type": "bytes4"
        }
      ],
      "name": "supportsInterface",
      "outputs": [
        {
          "internalType": "bool",
          "name": "",
          "type": "bool"
        }
      ],
      "stateMutability": "view",
      "type": "function"
    },
    {
      "inputs": [],
      "name": "symbol",
      "outputs": [
        {
          "internalType": "string",
          "name": "",
          "type": "string"
        }
      ],
      "stateMutability": "view",
      "type": "function"
    },
    {
      "inputs": [
        {
          "internalType": "uint256",
          "name": "tokenId",
          "type": "uint256"
        }
      ],
      "name": "tokenURI",
      "outputs": [
        {
          "internalType": "string",
          "name": "",
          "type": "string"
        }
      ],
      "stateMutability": "view",
      "type": "function"
    },
    {
      "inputs": [],
      "name": "totalSupply",
      "outputs": [
        {
          "internalType": "uint256",
          "name": "",
          "type": "uint256"
        }
      ],
      "stateMutability": "view",
      "type": "function"
    },
    {
      "inputs": [
        {
          "internalType": "address",
          "name": "from",
          "type": "address"
        },
        {
          "internalType": "address",
          "name": "to",
          "type": "address"
        },
        {
          "internalType": "uint256",
          "name": "tokenId",
          "type": "uint256"
        }
      ],
      "name": "transferFrom",
      "outputs": [],
      "stateMutability": "nonpayable",
      "type": "function"
    },
    {
      "inputs": [],
      "name": "withdraw",
      "outputs": [],
      "stateMutability": "nonpayable",
      "type": "function"
    }
  ],
  "bytecode": "0x60806040523480156200001157600080fd5b50604051620037093803806200370983398181016040528101906200003791906200027e565b828281600090816200004a919062000559565b5080600190816200005c919062000559565b50505033600860006101000a81548173ffffffffffffffffffffffffffffffffffffffff021916908373ffffffffffffffffffffffffffffffffffffffff1602179055508060098190555050505062000640565b6000604051905090565b600080fd5b600080fd5b600080fd5b600080fd5b6000601f19601f8301169050919050565b7f4e487b7100000000000000000000000000000000000000000000000000000000600052604160045260246000fd5b6200011982620000ce565b810181811067ffffffffffffffff821117156200013b576200013a620000df565b5b80604052505050565b600062000150620000b0565b90506200015e82826200010e565b919050565b600067ffffffffffffffff821115620001815762000180620000df565b5b6200018c82620000ce565b9050602081019050919050565b60005b83811015620001b95780820151818401526020810190506200019c565b60008484015250505050565b6000620001dc620001d68462000163565b62000144565b905082815260208101848484011115620001fb57620001fa620000c9565b5b6200020884828562000199565b509392505050565b600082601f830112620002285762000227620000c4565b5b81516200023a848260208601620001c5565b91505092915050565b6000819050919050565b620002588162000243565b81146200026457600080fd5b50565b60008151905062000278816200024d565b92915050565b6000806000606084860312156200029a5762000299620000ba565b5b600084015167ffffffffffffffff811115620002bb57620002ba620000bf565b5b620002c98682870162000210565b935050602084015167ffffffffffffffff811115620002ed57620002ec620000bf565b5b620002fb8682870162000210565b92505060406200030e8682870162000267565b9150509250925092565b600081519050919050565b7f4e487b7100000000000000000000000000000000000000000000000000000000600052602260045260246000fd5b600060028204905060018216806200036b57607f821691505b60208210810362000381576200038062000323565b5b50919050565b60008190508160005260206000209050919050565b60006020601f8301049050919050565b600082821b905092915050565b600060088302620003eb7fffffffffffffffffffffffffffffffffffffffffffffffffffffffffffffffff82620003ac565b620003f78683620003ac565b95508019841693508086168417925050509392505050565b6000819050919050565b60006200043a620004346200042e8462000243565b6200040f565b62000243565b9050919050565b6000819050919050565b620004568362000419565b6200046e620004658262000441565b848454620003b9565b825550505050565b600090565b6200048562000476565b620004928184846200044b565b505050565b5b81811015620004ba57620004ae6000826200047b565b60018101905062000498565b5050565b601f8211156200050957620004d38162000387565b620004de846200039c565b81016020851015620004ee578190505b62000506620004fd856200039c565b83018262000497565b50505b505050565b600082821c905092915050565b60006200052e600019846008026200050e565b1980831691505092915050565b60006200054983836200051b565b9150826002028217905092915050565b620005648262000318565b67ffffffffffffffff81111562000580576200057f620000df565b5b6200058c825462000352565b62000599828285620004be565b600060209050601f831160018114620005d15760008415620005bc578287015190505b620005c885826200053b565b86555062000638565b601f198416620005e18662000387565b60005b828110156200060b57848901518255600182019150602085019450602081019050620005e4565b868310156200062b578489015162000627601f8916826200051b565b8355505b6001600288020188555050505b505050505050565b6130b980620006506000396000f3fe6080604052600436106101145760003560e01c806344a0d68a116100a0578063a22cb46511610064578063a22cb4651461039f578063b88d4fde146103c8578063c87b56dd146103f1578063d85d3d271461042e578063e985e9c51461044a57610114565b806344a0d68a146102a65780636352211e146102cf57806370a082311461030c5780638da5cb5b1461034957806395d89b411461037457610114565b806313faede6116100e757806313faede6146101e757806318160ddd1461021257806323b872dd1461023d5780633ccfd60b1461026657806342842e0e1461027d57610114565b806301ffc9a71461011957806306fdde0314610156578063081812fc14610181578063095ea7b3146101be575b600080fd5b34801561012557600080fd5b50610140600480360381019061013b9190611de0565b610487565b60405161014d9190611e28565b60405180910390f35b34801561016257600080fd5b5061016b610569565b6040516101789190611ed3565b60405180910390f35b34801561018d57600080fd5b506101a860048036038101906101a39190611f2b565b6105fb565b6040516101b59190611f99565b60405180910390f35b3480156101ca57600080fd5b506101e560048036038101906101e09190611fe0565b610641565b005b3480156101f357600080fd5b506101fc610758565b604051610209919061202f565b60405180910390f35b34801561021e57600080fd5b5061022761075e565b604051610234919061202f565b60405180910390f35b34801561024957600080fd5b50610264600480360381019061025f919061204a565b61076f565b005b34801561027257600080fd5b5061027b6107cf565b005b34801561028957600080fd5b506102a4600480360381019061029f919061204a565b6108c4565b005b3480156102b257600080fd5b506102cd60048036038101906102c89190611f2b565b6108e4565b005b3480156102db57600080fd5b506102f660048036038101906102f19190611f2b565b61097e565b6040516103039190611f99565b60405180910390f35b34801561031857600080fd5b50610333600480360381019061032e919061209d565b610a04565b604051610340919061202f565b60405180910390f35b34801561035557600080fd5b5061035e610abb565b60405161036b9190611f99565b60405180910390f35b34801561038057600080fd5b50610389610ae1565b6040516103969190611ed3565b60405180910390f35b3480156103ab57600080fd5b506103c660048036038101906103c191906120f6565b610b73565b005b3480156103d457600080fd5b506103ef60048036038101906103ea919061226b565b610b89565b005b3480156103fd57600080fd5b5061041860048036038101906104139190611f2b565b610beb565b6040516104259190611ed3565b60405180910390f35b6104486004803603810190610443919061238f565b610cfd565b005b34801561045657600080fd5b50610471600480360381019061046c91906123d8565b610d72565b60405161047e9190611e28565b60405180910390f35b60007f80ac58cd000000000000000000000000000000000000000000000000000000007bffffffffffffffffffffffffffffffffffffffffffffffffffffffff1916827bffffffffffffffffffffffffffffffffffffffffffffffffffffffff1916148061055257507f5b5e139f000000000000000000000000000000000000000000000000000000007bffffffffffffffffffffffffffffffffffffffffffffffffffffffff1916827bffffffffffffffffffffffffffffffffffffffffffffffffffffffff1916145b80610562575061056182610e06565b5b9050919050565b60606000805461057890612447565b80601f01602080910402602001604051908101604052809291908181526020018280546105a490612447565b80156105f15780601f106105c6576101008083540402835291602001916105f1565b820191906000526020600020905b8154815290600101906020018083116105d457829003601f168201915b5050505050905090565b600061060682610e70565b6004600083815260200190815260200160002060009054906101000a900473ffffffffffffffffffffffffffffffffffffffff169050919050565b600061064c8261097e565b90508073ffffffffffffffffffffffffffffffffffffffff168373ffffffffffffffffffffffffffffffffffffffff16036106bc576040517f08c379a00000000000000000000000000000000000000000000000000000000081526004016106b3906124ea565b60405180910390fd5b8073ffffffffffffffffffffffffffffffffffffffff166106db610ebb565b73ffffffffffffffffffffffffffffffffffffffff16148061070a575061070981610704610ebb565b610d72565b5b610749576040517f08c379a00000000000000000000000000000000000000000000000000000000081526004016107409061257c565b60405180910390fd5b6107538383610ec3565b505050565b60095481565b600061076a6007610f7c565b905090565b61078061077a610ebb565b82610f8a565b6107bf576040517f08c379a00000000000000000000000000000000000000000000000000000000081526004016107b69061260e565b60405180910390fd5b6107ca83838361101f565b505050565b600860009054906101000a900473ffffffffffffffffffffffffffffffffffffffff1673ffffffffffffffffffffffffffffffffffffffff163373ffffffffffffffffffffffffffffffffffffffff161461082957600080fd5b6000600860009054906101000a900473ffffffffffffffffffffffffffffffffffffffff1673ffffffffffffffffffffffffffffffffffffffff16476040516108719061265f565b60006040518083038185875af1925050503d80600081146108ae576040519150601f19603f3d011682016040523d82523d6000602084013e6108b3565b606091505b50509050806108c157600080fd5b50565b6108df83838360405180602001604052806000815250610b89565b505050565b600860009054906101000a900473ffffffffffffffffffffffffffffffffffffffff1673ffffffffffffffffffffffffffffffffffffffff163373ffffffffffffffffffffffffffffffffffffffff1614610974576040517f08c379a000000000000000000000000000000000000000000000000000000000815260040161096b906126e6565b60405180910390fd5b8060098190555050565b60008061098a83611318565b9050600073ffffffffffffffffffffffffffffffffffffffff168173ffffffffffffffffffffffffffffffffffffffff16036109fb576040517f08c379a00000000000000000000000000000000000000000000000000000000081526004016109f290612752565b60405180910390fd5b80915050919050565b60008073ffffffffffffffffffffffffffffffffffffffff168273ffffffffffffffffffffffffffffffffffffffff1603610a74576040517f08c379a0000000000000000000000000000000000000000000000000000000008152600401610a6b906127e4565b60405180910390fd5b600360008373ffffffffffffffffffffffffffffffffffffffff1673ffffffffffffffffffffffffffffffffffffffff168152602001908152602001600020549050919050565b600860009054906101000a900473ffffffffffffffffffffffffffffffffffffffff1681565b606060018054610af090612447565b80601f0160208091040260200160405190810160405280929190818152602001828054610b1c90612447565b8015610b695780601f10610b3e57610100808354040283529160200191610b69565b820191906000526020600020905b815481529060010190602001808311610b4c57829003601f168201915b5050505050905090565b610b85610b7e610ebb565b8383611355565b5050565b610b9a610b94610ebb565b83610f8a565b610bd9576040517f08c379a0000000000000000000000000000000000000000000000000000000008152600401610bd09061260e565b60405180910390fd5b610be5848484846114c1565b50505050565b6060610bf682610e70565b6000600660008481526020019081526020016000208054610c1690612447565b80601f0160208091040260200160405190810160405280929190818152602001828054610c4290612447565b8015610c8f5780601f10610c6457610100808354040283529160200191610c8f565b820191906000526020600020905b815481529060010190602001808311610c7257829003601f168201915b505050505090506000610ca061151d565b90506000815103610cb5578192505050610cf8565b600082511115610cea578082604051602001610cd2929190612840565b60405160208183030381529060405292505050610cf8565b610cf384611534565b925050505b919050565b600954341015610d42576040517f08c379a0000000000000000000000000000000000000000000000000000000008152600401610d39906128b0565b60405180910390fd5b610d4c600761159c565b6000610d586007610f7c565b9050610d6433826115b2565b610d6e81836117cf565b5050565b6000600560008473ffffffffffffffffffffffffffffffffffffffff1673ffffffffffffffffffffffffffffffffffffffff16815260200190815260200160002060008373ffffffffffffffffffffffffffffffffffffffff1673ffffffffffffffffffffffffffffffffffffffff16815260200190815260200160002060009054906101000a900460ff16905092915050565b60007f01ffc9a7000000000000000000000000000000000000000000000000000000007bffffffffffffffffffffffffffffffffffffffffffffffffffffffff1916827bffffffffffffffffffffffffffffffffffffffffffffffffffffffff1916149050919050565b610e798161183c565b610eb8576040517f08c379a0000000000000000000000000000000000000000000000000000000008152600401610eaf90612752565b60405180910390fd5b50565b600033905090565b816004600083815260200190815260200160002060006101000a81548173ffffffffffffffffffffffffffffffffffffffff021916908373ffffffffffffffffffffffffffffffffffffffff160217905550808273ffffffffffffffffffffffffffffffffffffffff16610f368361097e565b73ffffffffffffffffffffffffffffffffffffffff167f8c5be1e5ebec7d5bd14f71427d1e84f3dd0314c0f7b2291e5b200ac8c7c3b92560405160405180910390a45050565b600081600001549050919050565b600080610f968361097e565b90508073ffffffffffffffffffffffffffffffffffffffff168473ffffffffffffffffffffffffffffffffffffffff161480610fd85750610fd78185610d72565b5b8061101657508373ffffffffffffffffffffffffffffffffffffffff16610ffe846105fb565b73ffffffffffffffffffffffffffffffffffffffff16145b91505092915050565b8273ffffffffffffffffffffffffffffffffffffffff1661103f8261097e565b73ffffffffffffffffffffffffffffffffffffffff1614611095576040517f08c379a000000000000000000000000000000000000000000000000000000000815260040161108c90612942565b60405180910390fd5b600073ffffffffffffffffffffffffffffffffffffffff168273ffffffffffffffffffffffffffffffffffffffff1603611104576040517f08c379a00000000000000000000000000000000000000000000000000000000081526004016110fb906129d4565b60405180910390fd5b611111838383600161187d565b8273ffffffffffffffffffffffffffffffffffffffff166111318261097e565b73ffffffffffffffffffffffffffffffffffffffff1614611187576040517f08c379a000000000000000000000000000000000000000000000000000000000815260040161117e90612942565b60405180910390fd5b6004600082815260200190815260200160002060006101000a81549073ffffffffffffffffffffffffffffffffffffffff02191690556001600360008573ffffffffffffffffffffffffffffffffffffffff1673ffffffffffffffffffffffffffffffffffffffff168152602001908152602001600020600082825403925050819055506001600360008473ffffffffffffffffffffffffffffffffffffffff1673ffffffffffffffffffffffffffffffffffffffff16815260200190815260200160002060008282540192505081905550816002600083815260200190815260200160002060006101000a81548173ffffffffffffffffffffffffffffffffffffffff021916908373ffffffffffffffffffffffffffffffffffffffff160217905550808273ffffffffffffffffffffffffffffffffffffffff168473ffffffffffffffffffffffffffffffffffffffff167fddf252ad1be2c89b69c2b068fc378daa952ba7f163c4a11628f55a4df523b3ef60405160405180910390a461131383838360016119a3565b505050565b60006002600083815260200190815260200160002060009054906101000a900473ffffffffffffffffffffffffffffffffffffffff169050919050565b8173ffffffffffffffffffffffffffffffffffffffff168373ffffffffffffffffffffffffffffffffffffffff16036113c3576040517f08c379a00000000000000000000000000000000000000000000000000000000081526004016113ba90612a40565b60405180910390fd5b80600560008573ffffffffffffffffffffffffffffffffffffffff1673ffffffffffffffffffffffffffffffffffffffff16815260200190815260200160002060008473ffffffffffffffffffffffffffffffffffffffff1673ffffffffffffffffffffffffffffffffffffffff16815260200190815260200160002060006101000a81548160ff0219169083151502179055508173ffffffffffffffffffffffffffffffffffffffff168373ffffffffffffffffffffffffffffffffffffffff167f17307eab39ab6107e8899845ad3d59bd9653f200f220920489ca2b5937696c31836040516114b49190611e28565b60405180910390a3505050565b6114cc84848461101f565b6114d8848484846119a9565b611517576040517f08c379a000000000000000000000000000000000000000000000000000000000815260040161150e90612ad2565b60405180910390fd5b50505050565b606060405180602001604052806000815250905090565b606061153f82610e70565b600061154961151d565b905060008151116115695760405180602001604052806000815250611594565b8061157384611b30565b604051602001611584929190612840565b6040516020818303038152906040525b915050919050565b6001816000016000828254019250508190555050565b600073ffffffffffffffffffffffffffffffffffffffff168273ffffffffffffffffffffffffffffffffffffffff1603611621576040517f08c379a000000000000000000000000000000000000000000000000000000000815260040161161890612b3e565b60405180910390fd5b61162a8161183c565b1561166a576040517f08c379a000000000000000000000000000000000000000000000000000000000815260040161166190612baa565b60405180910390fd5b61167860008383600161187d565b6116818161183c565b156116c1576040517f08c379a00000000000000000000000000000000000000000000000000000000081526004016116b890612baa565b60405180910390fd5b6001600360008473ffffffffffffffffffffffffffffffffffffffff1673ffffffffffffffffffffffffffffffffffffffff16815260200190815260200160002060008282540192505081905550816002600083815260200190815260200160002060006101000a81548173ffffffffffffffffffffffffffffffffffffffff021916908373ffffffffffffffffffffffffffffffffffffffff160217905550808273ffffffffffffffffffffffffffffffffffffffff16600073ffffffffffffffffffffffffffffffffffffffff167fddf252ad1be2c89b69c2b068fc378daa952ba7f163c4a11628f55a4df523b3ef60405160405180910390a46117cb6000838360016119a3565b5050565b6117d88261183c565b611817576040517f08c379a000000000000000000000000000000000000000000000000000000000815260040161180e90612c3c565b60405180910390fd5b806006600084815260200190815260200160002090816118379190612e08565b505050565b60008073ffffffffffffffffffffffffffffffffffffffff1661185e83611318565b73ffffffffffffffffffffffffffffffffffffffff1614159050919050565b600181111561199d57600073ffffffffffffffffffffffffffffffffffffffff168473ffffffffffffffffffffffffffffffffffffffff16146119115780600360008673ffffffffffffffffffffffffffffffffffffffff1673ffffffffffffffffffffffffffffffffffffffff16815260200190815260200160002060008282546119099190612f09565b925050819055505b600073ffffffffffffffffffffffffffffffffffffffff168373ffffffffffffffffffffffffffffffffffffffff161461199c5780600360008573ffffffffffffffffffffffffffffffffffffffff1673ffffffffffffffffffffffffffffffffffffffff16815260200190815260200160002060008282546119949190612f3d565b925050819055505b5b50505050565b50505050565b60006119ca8473ffffffffffffffffffffffffffffffffffffffff16611bfe565b15611b23578373ffffffffffffffffffffffffffffffffffffffff1663150b7a026119f3610ebb565b8786866040518563ffffffff1660e01b8152600401611a159493929190612fc6565b6020604051808303816000875af1925050508015611a5157506040513d601f19601f82011682018060405250810190611a4e9190613027565b60015b611ad3573d8060008114611a81576040519150601f19603f3d011682016040523d82523d6000602084013e611a86565b606091505b506000815103611acb576040517f08c379a0000000000000000000000000000000000000000000000000000000008152600401611ac290612ad2565b60405180910390fd5b805181602001fd5b63150b7a0260e01b7bffffffffffffffffffffffffffffffffffffffffffffffffffffffff1916817bffffffffffffffffffffffffffffffffffffffffffffffffffffffff191614915050611b28565b600190505b949350505050565b606060006001611b3f84611c21565b01905060008167ffffffffffffffff811115611b5e57611b5d612140565b5b6040519080825280601f01601f191660200182016040528015611b905781602001600182028036833780820191505090505b509050600082602001820190505b600115611bf3578080600190039150507f3031323334353637383961626364656600000000000000000000000000000000600a86061a8153600a8581611be757611be6613054565b5b04945060008503611b9e575b819350505050919050565b6000808273ffffffffffffffffffffffffffffffffffffffff163b119050919050565b600080600090507a184f03e93ff9f4daa797ed6e38ed64bf6a1f0100000000000000008310611c7f577a184f03e93ff9f4daa797ed6e38ed64bf6a1f0100000000000000008381611c7557611c74613054565b5b0492506040810190505b6d04ee2d6d415b85acef81000000008310611cbc576d04ee2d6d415b85acef81000000008381611cb257611cb1613054565b5b0492506020810190505b662386f26fc100008310611ceb57662386f26fc100008381611ce157611ce0613054565b5b0492506010810190505b6305f5e1008310611d14576305f5e1008381611d0a57611d09613054565b5b0492506008810190505b6127108310611d39576127108381611d2f57611d2e613054565b5b0492506004810190505b60648310611d5c5760648381611d5257611d51613054565b5b0492506002810190505b600a8310611d6b576001810190505b80915050919050565b6000604051905090565b600080fd5b600080fd5b60007fffffffff0000000000000000000000000000000000000000000000000000000082169050919050565b611dbd81611d88565b8114611dc857600080fd5b50565b600081359050611dda81611db4565b92915050565b600060208284031215611df657611df5611d7e565b5b6000611e0484828501611dcb565b91505092915050565b60008115159050919050565b611e2281611e0d565b82525050565b6000602082019050611e3d6000830184611e19565b92915050565b600081519050919050565b600082825260208201905092915050565b60005b83811015611e7d578082015181840152602081019050611e62565b60008484015250505050565b6000601f19601f8301169050919050565b6000611ea582611e43565b611eaf8185611e4e565b9350611ebf818560208601611e5f565b611ec881611e89565b840191505092915050565b60006020820190508181036000830152611eed8184611e9a565b905092915050565b6000819050919050565b611f0881611ef5565b8114611f1357600080fd5b50565b600081359050611f2581611eff565b92915050565b600060208284031215611f4157611f40611d7e565b5b6000611f4f84828501611f16565b91505092915050565b600073ffffffffffffffffffffffffffffffffffffffff82169050919050565b6000611f8382611f58565b9050919050565b611f9381611f78565b82525050565b6000602082019050611fae6000830184611f8a565b92915050565b611fbd81611f78565b8114611fc857600080fd5b50565b600081359050611fda81611fb4565b92915050565b60008060408385031215611ff757611ff6611d7e565b5b600061200585828601611fcb565b925050602061201685828601611f16565b9150509250929050565b61202981611ef5565b82525050565b60006020820190506120446000830184612020565b92915050565b60008060006060848603121561206357612062611d7e565b5b600061207186828701611fcb565b935050602061208286828701611fcb565b925050604061209386828701611f16565b9150509250925092565b6000602082840312156120b3576120b2611d7e565b5b60006120c184828501611fcb565b91505092915050565b6120d381611e0d565b81146120de57600080fd5b50565b6000813590506120f0816120ca565b92915050565b6000806040838503121561210d5761210c611d7e565b5b600061211b85828601611fcb565b925050602061212c858286016120e1565b9150509250929050565b600080fd5b600080fd5b7f4e487b7100000000000000000000000000000000000000000000000000000000600052604160045260246000fd5b61217882611e89565b810181811067ffffffffffffffff8211171561219757612196612140565b5b80604052505050565b60006121aa611d74565b90506121b6828261216f565b919050565b600067ffffffffffffffff8211156121d6576121d5612140565b5b6121df82611e89565b9050602081019050919050565b82818337600083830152505050565b600061220e612209846121bb565b6121a0565b90508281526020810184848401111561222a5761222961213b565b5b6122358482856121ec565b509392505050565b600082601f83011261225257612251612136565b5b81356122628482602086016121fb565b91505092915050565b6000806000806080858703121561228557612284611d7e565b5b600061229387828801611fcb565b94505060206122a487828801611fcb565b93505060406122b587828801611f16565b925050606085013567ffffffffffffffff8111156122d6576122d5611d83565b5b6122e28782880161223d565b91505092959194509250565b600067ffffffffffffffff82111561230957612308612140565b5b61231282611e89565b9050602081019050919050565b600061233261232d846122ee565b6121a0565b90508281526020810184848401111561234e5761234d61213b565b5b6123598482856121ec565b509392505050565b600082601f83011261237657612375612136565b5b813561238684826020860161231f565b91505092915050565b6000602082840312156123a5576123a4611d7e565b5b600082013567ffffffffffffffff8111156123c3576123c2611d83565b5b6123cf84828501612361565b91505092915050565b600080604083850312156123ef576123ee611d7e565b5b60006123fd85828601611fcb565b925050602061240e85828601611fcb565b9150509250929050565b7f4e487b7100000000000000000000000000000000000000000000000000000000600052602260045260246000fd5b6000600282049050600182168061245f57607f821691505b60208210810361247257612471612418565b5b50919050565b7f4552433732313a20617070726f76616c20746f2063757272656e74206f776e6560008201527f7200000000000000000000000000000000000000000000000000000000000000602082015250565b60006124d4602183611e4e565b91506124df82612478565b604082019050919050565b60006020820190508181036000830152612503816124c7565b9050919050565b7f4552433732313a20617070726f76652063616c6c6572206973206e6f7420746f60008201527f6b656e206f776e6572206f7220617070726f76656420666f7220616c6c000000602082015250565b6000612566603d83611e4e565b91506125718261250a565b604082019050919050565b6000602082019050818103600083015261259581612559565b9050919050565b7f4552433732313a2063616c6c6572206973206e6f7420746f6b656e206f776e6560008201527f72206f7220617070726f76656400000000000000000000000000000000000000602082015250565b60006125f8602d83611e4e565b91506126038261259c565b604082019050919050565b60006020820190508181036000830152612627816125eb565b9050919050565b600081905092915050565b50565b600061264960008361262e565b915061265482612639565b600082019050919050565b600061266a8261263c565b9150819050919050565b7f4f6e6c7920746865206f776e65722063616e206368616e67652074686520636f60008201527f7374000000000000000000000000000000000000000000000000000000000000602082015250565b60006126d0602283611e4e565b91506126db82612674565b604082019050919050565b600060208201905081810360008301526126ff816126c3565b9050919050565b7f4552433732313a20696e76616c696420746f6b656e2049440000000000000000600082015250565b600061273c601883611e4e565b915061274782612706565b602082019050919050565b6000602082019050818103600083015261276b8161272f565b9050919050565b7f4552433732313a2061646472657373207a65726f206973206e6f74206120766160008201527f6c6964206f776e65720000000000000000000000000000000000000000000000602082015250565b60006127ce602983611e4e565b91506127d982612772565b604082019050919050565b600060208201905081810360008301526127fd816127c1565b9050919050565b600081905092915050565b600061281a82611e43565b6128248185612804565b9350612834818560208601611e5f565b80840191505092915050565b600061284c828561280f565b9150612858828461280f565b91508190509392505050565b7f496e73756666696369656e74207061796d656e74000000000000000000000000600082015250565b600061289a601483611e4e565b91506128a582612864565b602082019050919050565b600060208201905081810360008301526128c98161288d565b9050919050565b7f4552433732313a207472616e736665722066726f6d20696e636f72726563742060008201527f6f776e6572000000000000000000000000000000000000000000000000000000602082015250565b600061292c602583611e4e565b9150612937826128d0565b604082019050919050565b6000602082019050818103600083015261295b8161291f565b9050919050565b7f4552433732313a207472616e7366657220746f20746865207a65726f2061646460008201527f7265737300000000000000000000000000000000000000000000000000000000602082015250565b60006129be602483611e4e565b91506129c982612962565b604082019050919050565b600060208201905081810360008301526129ed816129b1565b9050919050565b7f4552433732313a20617070726f766520746f2063616c6c657200000000000000600082015250565b6000612a2a601983611e4e565b9150612a35826129f4565b602082019050919050565b60006020820190508181036000830152612a5981612a1d565b9050919050565b7f4552433732313a207472616e7366657220746f206e6f6e20455243373231526560008201527f63656976657220696d706c656d656e7465720000000000000000000000000000602082015250565b6000612abc603283611e4e565b9150612ac782612a60565b604082019050919050565b60006020820190508181036000830152612aeb81612aaf565b9050919050565b7f4552433732313a206d696e7420746f20746865207a65726f2061646472657373600082015250565b6000612b28602083611e4e565b9150612b3382612af2565b602082019050919050565b60006020820190508181036000830152612b5781612b1b565b9050919050565b7f4552433732313a20746f6b656e20616c7265616479206d696e74656400000000600082015250565b6000612b94601c83611e4e565b9150612b9f82612b5e565b602082019050919050565b60006020820190508181036000830152612bc381612b87565b9050919050565b7f45524337323155524953746f726167653a2055524920736574206f66206e6f6e60008201527f6578697374656e7420746f6b656e000000000000000000000000000000000000602082015250565b6000612c26602e83611e4e565b9150612c3182612bca565b604082019050919050565b60006020820190508181036000830152612c5581612c19565b9050919050565b60008190508160005260206000209050919050565b60006020601f8301049050919050565b600082821b905092915050565b600060088302612cbe7fffffffffffffffffffffffffffffffffffffffffffffffffffffffffffffffff82612c81565b612cc88683612c81565b95508019841693508086168417925050509392505050565b6000819050919050565b6000612d05612d00612cfb84611ef5565b612ce0565b611ef5565b9050919050565b6000819050919050565b612d1f83612cea565b612d33612d2b82612d0c565b848454612c8e565b825550505050565b600090565b612d48612d3b565b612d53818484612d16565b505050565b5b81811015612d7757612d6c600082612d40565b600181019050612d59565b5050565b601f821115612dbc57612d8d81612c5c565b612d9684612c71565b81016020851015612da5578190505b612db9612db185612c71565b830182612d58565b50505b505050565b600082821c905092915050565b6000612ddf60001984600802612dc1565b1980831691505092915050565b6000612df88383612dce565b9150826002028217905092915050565b612e1182611e43565b67ffffffffffffffff811115612e2a57612e29612140565b5b612e348254612447565b612e3f828285612d7b565b600060209050601f831160018114612e725760008415612e60578287015190505b612e6a8582612dec565b865550612ed2565b601f198416612e8086612c5c565b60005b82811015612ea857848901518255600182019150602085019450602081019050612e83565b86831015612ec55784890151612ec1601f891682612dce565b8355505b6001600288020188555050505b505050505050565b7f4e487b7100000000000000000000000000000000000000000000000000000000600052601160045260246000fd5b6000612f1482611ef5565b9150612f1f83611ef5565b9250828203905081811115612f3757612f36612eda565b5b92915050565b6000612f4882611ef5565b9150612f5383611ef5565b9250828201905080821115612f6b57612f6a612eda565b5b92915050565b600081519050919050565b600082825260208201905092915050565b6000612f9882612f71565b612fa28185612f7c565b9350612fb2818560208601611e5f565b612fbb81611e89565b840191505092915050565b6000608082019050612fdb6000830187611f8a565b612fe86020830186611f8a565b612ff56040830185612020565b81810360608301526130078184612f8d565b905095945050505050565b60008151905061302181611db4565b92915050565b60006020828403121561303d5761303c611d7e565b5b600061304b84828501613012565b91505092915050565b7f4e487b7100000000000000000000000000000000000000000000000000000000600052601260045260246000fdfea2646970667358221220b3c30832e1fed58400d04269e2b4c00fc0370567dfe0fe8c22bb08bae91e8fe364736f6c63430008120033",
  "linkReferences": {},
  "deployedLinkReferences": {}
}